:020000040800F2
:10000000A80B0020B1040008850200088702000840
:100010008B0200088F020008930200080000000015
:10002000000000000000000000000000970200082F
:1000300099020008000000009B0200089D020008D1
:10004000CB040008CB040008CB040008CB04000854
:10005000CB040008CB040008CB040008CB04000844
:10006000CB040008CB040008CB040008CB04000834
:10007000CB040008CB040008BF2A0008CB0400080A
:10008000CB0400087D2A0008CB040008CB0400083C
:10009000CB040008CB040008CB040008CB04000804
:1000A000CB040008CB040008CB040008CB040008F4
:1000B000CB040008CB040008CF2C0008CB040008B8
:1000C000CB040008CB040008CB040008CB040008D4
:1000D000CB04000823250008512A0008932A0008B1
:1000E000CB040008CB040008CB040008CB040008B4
:1000F000CB040008CB040008CB040008CB040008A4
:10010000CB040008CB040008CB040008CB04000893
:10011000CB040008CB040008CB040008CB04000883
:10012000CB040008CB040008CB040008CB04000873
:10013000CB040008CB040008CB040008CB04000863
:10014000CB040008CB040008CB040008CB04000853
:10015000CB040008CB040008CB040008CB04000843
:10016000CB040008CB040008CB040008CB04000833
:10017000CB040008CB040008CB040008CB04000823
:10018000CB040008CB04000800F002F800F03CF8B3
:100190000AA090E8000C82448344AAF10107DA45E2
:1001A00001D100F031F8AFF2090EBAE80F0013F0F8
:1001B000010F18BFFB1A43F001031847442E00003B
:1001C000642E0000103A24BF78C878C1FAD85207CC
:1001D00024BF30C830C144BF04680C6070470000C1
:1001E0000023002400250026103A28BF78C1FBD840
:1001F000520728BF30C148BF0B6070471FB502F0DF
:10020000F9FE1FBD10B510BD02F0C2FE1146FFF78A
:10021000F5FF00F022F802F0E0FE03B4FFF7F2FF72
:1002200003BC02F01FF9000010B54FF4407000F05D
:100230005FF9A82002F094F802F0F0FC02F000FD53
:1002400042F2CF0141F2873002F010FD0B484169C4
:1002500088470B484169884710BDFFF7E5FF08480C
:100260004169884708E002F0BAFD10B103484169CE
:100270008847C82002F0D6F8F5E7000030000020DB
:1002800048000020704700BFFEE700BFFEE700BF48
:10029000FEE700BFFEE770477047704770470000F9
:1002A0000CB50020019000907648006840F4803042
:1002B0007449086000BF7348006800F40030009083
:1002C0000198401C0190009818B90198B0F5A04F12
:1002D000F1D16C48006800F4003010B101200090AA
:1002E00001E0002000900098012846D16548403088
:1002F000006840F0805063494031086062480068FF
:1003000040F44040604908605E48083000685D493C
:10031000083108600846006840F40040086008465C
:10032000006840F4A05008605848091F0860081F82
:10033000006840F08070091F086000BF51480068E5
:1003400000F000700028F9D040F2057050490860B4
:100350004C480830006820F003004A490831086022
:100360000846006840F00200086000BF45480830B9
:10037000006800F00C000828F8D10CBD10B5454805
:10038000006840F47000434908603E48006840F04F
:1003900001003C49086000203A49083108603948AA
:1003A00000683D490840374908603C48091D08601D
:1003B000081F006820F48020091F086000203149D0
:1003C0000C310860FFF76CFF4FF000603149803955
:1003D000086010BD70B50020002202230024022115
:1003E000284D08352D6805F00C0020B1042806D0F2
:1003F000082834D107E02A4D2A4E356033E02A4DD3
:10040000284E35602FE01F4D2D1D2D68C5F38054FB
:100410001C4D2D1D2D6805F03F0154B1224DB5FB3B
:10042000F1F5184E361D3668C6F3881605FB06F240
:1004300009E01B4DB5FBF1F5124E361D3668C6F3CB
:10044000881605FB06F20F4D2D1D2D68C5F30145DD
:100450006D1C6B00B2FBF3F5124E356003E0104DDE
:10046000104E356000BF00BF064D08352D68C5F33E
:1004700003150E4E705D0B4D2D68C540094E35605D
:1004800070BD000000380240007000400854400772
:10049000003C024088ED00E0FFFFF6FE1030002433
:1004A0000024F4000000002000127A000400002064
:1004B0000948804709480047FEE7FEE7FEE7FEE7F8
:1004C000FEE7FEE7FEE7FEE7FEE7FEE70448054934
:1004D000054A064B704700007D03000889010008AB
:1004E000A8050020A80B0020A8070020A8070020CE
:1004F00032490143324A1160704770B50021002330
:100500000F22C4781CB32E4C246804F4E064C4F5B4
:10051000E064C4F30721C1F10404E3B20A41447862
:100520009C40E1B28478144021430C07210E254CF5
:1005300005786155047804F01F050124AC40057866
:100540006D11AD0005F1E025C5F8004109E0047822
:1005500004F01F050124AC401B4D0678761145F8C8
:10056000264070BD194A0A400243154B1B1F1A60F2
:10057000704739B1124A121D12680243104B1B1DFD
:100580001A6006E00E4A121D126882430C4B1B1DB6
:100590001A607047042808D14FF0E021096941F042
:1005A00004014FF0E022116107E04FF0E0210969FA
:1005B00021F004014FF0E022116170470000FA05BC
:1005C0000CED00E000E400E080E100E080FFFF1FB0
:1005D000016821F00101016000210160416081603A
:1005E000C160016121214161DB49884204D13D2183
:1005F000D94A103A91608CE0D7491831884205D128
:100600004FF47461D44A103A916082E0D24930319B
:10061000884205D14FF47411CF4A103A916078E0C6
:10062000CD494831884205D14FF07461CA4A103A29
:1006300091606EE0C8496031884204D1C749C64A1A
:10064000103AD16065E0C4497831884204D1C44988
:10065000C14A103AD1605CE0BF499031884204D170
:10066000C049BD4A103AD16053E0BB49A831884225
:1006700005D14FF03D51B84A103AD16049E0BA492E
:10068000884204D13D21B84A083A116041E0B64998
:100690001831884205D14FF47461B34A083A1160A9
:1006A00037E0B1493031884205D14FF47411AE4A78
:1006B000083A11602DE0AC494831884205D14FF02D
:1006C0007461A94A083A116023E0A7496031884261
:1006D00004D1A249A44A121F11601AE0A24978313C
:1006E000884204D19E49A04A121F116011E09E4920
:1006F0009031884204D19B499B4A121F116008E047
:100700009949A831884204D14FF03D51964A121FB1
:100710001160704710B500220268944B1A40CC68F3
:100720000B6823434C6923438C692343CC692343DF
:100730000C6A23434C6A23438C6A23434C6B234348
:100740008C6B23431A430260426922F00702D1E90D
:100750000B3423431A4342610B6943604B68836047
:100760008B68C36010BD0021016041608160C16081
:10077000016141618161C161016241628162C16265
:10078000016341638163704721B1026842F0010255
:10079000026003E0026822F001020260704721B1AA
:1007A000026842F40042026003E0026822F4004260
:1007B0000260704721B1026842F02002026003E04B
:1007C000026822F0200202607047416070470146D3
:1007D000486880B2704722B1036843F40023036085
:1007E00003E0036823F4002303600161704721B133
:1007F000026842F48022026003E0026822F4802250
:10080000026070470AB1016100E0C16070470146B3
:1008100000200A6802F400220AB1012000E0002052
:100820007047014600200A6802F001020AB1012067
:1008300000E000207047014600204A6902F03800BD
:10084000704730B503460A4600200024464DAB42AF
:1008500002D24149103901E04349103902F00055F4
:100860000DB14C6800E00C68414D2C4004EA0205D3
:100870000DB1012000E0002030BD02463A4B9A4203
:1008800002D23548103801E03748103801F00053E3
:100890001BB1374B0B40C36002E0354B0B4083600C
:1008A000704710B501F080034BB122B1436943F0AA
:1008B0008003436103E0436923F08003436180299F
:1008C0000BD02AB1036801F01E042343036004E047
:1008D000036801F01E04A343036010BD70B5024617
:1008E000002000240025204EB24202D21A4B103BB9
:1008F00001E01D4B103B1F4E0E4036B11E2606EA8E
:10090000D124166806EA040502E0566906F080055F
:1009100001F000560EB15C6800E01C68144E3440D3
:1009200004EA010616B10DB1012000E0002070BDFF
:1009300002460D4B9A4202D20748103801E00A489D
:10094000103801F000531BB1094B0B40C36002E0AB
:10095000074B0B4083607047106002403D00002051
:10096000400F002000003D20106402403F801CF03A
:100970007D0F7D0F3C0F3C0F10B504469848844214
:1009800008D10121084600F086FB0021012000F07B
:1009900082FB76E09348844208D10121022000F0D6
:1009A0007AFB0021022000F076FB6AE08E48844248
:1009B00008D10121042000F06EFB0021042000F08A
:1009C0006AFB5EE08948844208D10121082000F0DA
:1009D00062FB0021082000F05EFB52E08448844264
:1009E00008D10121102000F056FB0021102000F05A
:1009F00052FB46E07F48844208D10121202000F0CC
:100A00004AFB0021202000F046FB3AE07A4884426D
:100A100008D10121402000F03EFB0021402000F0E1
:100A20003AFB2EE07548844208D10121802000F075
:100A300032FB0021802000F02EFB22E0704884422F
:100A400008D10121801500F026FB0021A01500F03F
:100A500022FB16E06B48844208D10121401500F0CA
:100A60001AFB0021601500F016FB0AE0664884427C
:100A700007D10121001500F00EFB0021201500F028
:100A80000AFB10BDF0B50A4600210023002400BF78
:100A90003DE0012505FA01F3156805EA03049C42CF
:100AA00034D105684F000326BE40B5430560157973
:100AB0004E00B5400668354305601579012D02D01A
:100AC0001579022D16D185684F000326BE40B54327
:100AD000856055794E00B540866835438560456828
:100AE00001268E40B5434560456896798E40B6B282
:100AF00035434560C5684F000326BE40B543C56019
:100B0000D5794E00B540C6683543C560491C1029EB
:100B1000BFD3F0BD4FF6FF7101600021017141713B
:100B20008171C171704708B54FF480320092009A0C
:100B30000A430092009AC261C161009AC261C2690F
:100B40000092C269009208BD0246002013690B4062
:100B50000BB1012000E0002070470146086980B217
:100B600070470246002053690B400BB1012000E0A2
:100B7000002070470146486980B270470183704782
:100B8000418370470AB1018300E0418370474161AE
:100B9000704742694A4042617047F0B50023002423
:100BA0004D07ED0E02FA05F3CE1000F1200555F8C1
:100BB00026504E07F70E0F26BE40B543CF1000F16A
:100BC000200646F82750CE1000F1200555F8265093
:100BD00045EA0304CE1000F1200545F82640F0BD9B
:100BE000000002400004024000080240000C0240E5
:100BF000001002400014024000180240001C024095
:100C0000002002400024024000280240F948006809
:100C100040F00100F74908600020F64908310860FB
:100C2000F4480068F4490840F2490860F348091D97
:100C30000860F348EF4984310860F0481038091D16
:100C40000860EC48006820F48020EA490860002031
:100C5000E8490C310860E7498C3108607047002191
:100C6000E44A921C117011460870704710B5014695
:100C70000022002300204A11012A02D1DD4C236802
:100C800008E0022A03D1DB4C7034236802E0D94C1F
:100C90007434236801F01F02012494401C400CB1FD
:100CA000012000E0002010BD38B500200090002495
:100CB000002500BF3120FFF7D9FF05460098401CF2
:100CC00000900098B0F5A04F01D0002DF2D0312057
:100CD000FFF7CCFF08B1012400E00024204638BD16
:100CE00001460020C34A106820F0F80040EAC10025
:100CF00010607047C349086070470021BD4A7032D8
:100D000011701170012802D004280AD104E00121D9
:100D1000B84A7032117005E00521B64A7032117080
:100D200000E000BF00BF7047B7490860704770B56A
:100D3000049C41EA82150126C6EB530645EA0645A6
:100D4000054345EA0465AB4E361D356070BDAD49BF
:100D500008667047820142EA0172A64B84331A602A
:100D60007047A8498866704710B5830143EA01635C
:100D700043EA02739F4C8834236010BDA149086781
:100D80007047A049C864704702460020994B083359
:100D9000186820F0EC6042EA01031843954B0833D1
:100DA0001860704702460020924B0833186820F004
:100DB000784042EA010318438E4B083318607047AD
:100DC000014600208B4A0832106820F003000843D7
:100DD0001060704787480830006800F00C007047CA
:100DE00001460020834A0832106820F0F0000843D2
:100DF00010607047014600207E4A0832106820F4D7
:100E0000E05008431060704701460020794A0832DC
:100E1000106820F4604040EAC10010607047F0B5EF
:100E2000002100220024022500260223714F0837EA
:100E30003F6807F00C0121B1042905D0082937D1FA
:100E400005E0724F076036E0714F076033E0694F8D
:100E50003F1D3F68C7F38056664F3F1D3F6807F050
:100E60003F036EB16A4FB7FBF3F7DFF888C10CF1AF
:100E7000040CDCF800C0CCF3881C07FB0CF40CE07D
:100E8000624FB7FBF3F7DFF86CC10CF1040CDCF830
:100E900000C0CCF3881C07FB0CF4564F3F1D3F6885
:100EA000C7F301477F1C7D00B4FBF5F7076002E044
:100EB000564F076000BF00BF4E4F08373F6807F02E
:100EC000F0010909534F7A5C0768D7404760494FE2
:100ED00008373F6807F4E051890A4E4F7A5C47684B
:100EE000D7408760434F08373F6807F46041490B9C
:100EF000484F7A5C4768D740C760F0BD002100F4D6
:100F00004072B2F5407F0AD13A4A0832116821F4A2
:100F1000F811414A02401143364A08321160354AFD
:100F200070321268C0F30B031A43324B70331A60ED
:100F30007047354944390860704733494039086083
:100F4000704736490860704701460020294A8C32B4
:100F5000106820F01F004A1E1043264A8C32106091
:100F6000704701460020234A8C32106820F4F85064
:100F70004A1E40EA02201F4A8C3210607047014628
:100F800000201C4A8C32106820F440100843106086
:100F9000704701460020174A8C32106820F4400048
:100FA00008431060704701460020124A8C321068D6
:100FB00020F44030084310607047194908607047BA
:100FC00039B10C4A3032126802430A4B30331A608E
:100FD00006E0084A303212688243064B30331A600A
:100FE0007047F9B1034A343212680243014B34337B
:100FF0001A601CE000380240FFFFF6EA10300024BF
:101000000030002000004742800E47420024F400D8
:1010100000127A0014000020FFFCFF0F5C01474221
:10102000E01147428F4A126882438E4B1A60704724
:1010300039B18C4A121D126802438A4B1B1D1A607B
:1010400006E0884A121D12688243864B1B1D1A60F7
:10105000704739B1834A0C3212680243814B0C331A
:101060001A6006E07F4A0C32126882437D4B0C33D3
:101070001A60704739B17B4A103212680243794BCB
:1010800010331A6006E0774A103212688243754BBB
:1010900010331A60704739B1724A243A1268024319
:1010A000704B243B1A6006E06E4A243A1268824371
:1010B0006C4B243B1A60704739B16A4A203A126877
:1010C0000243684B203B1A6006E0664A203A1268E9
:1010D0008243644B203B1A60704739B1614A1C3A25
:1010E000126802435F4B1C3B1A6006E05D4A1C3AE3
:1010F000126882435B4B1C3B1A60704739B1594AF6
:10110000143A12680243574B143B1A6006E0554AE2
:10111000143A12688243534B143B1A60704739B13A
:10112000504A103A126802434E4B103B1A6006E0D8
:101130004C4A103A126882434A4B103B1A6070477F
:1011400039B1484A1C3212680243464B1C331A60BC
:1011500006E0444A1C3212688243424B1C331A6038
:10116000704739B13F4A2032126802433D4B203369
:101170001A6006E03B4A203212688243394B203322
:101180001A60704739B1374A243212680243354B2E
:1011900024331A6006E0334A243212688243314B0A
:1011A00024331A60704739B12E4A2C321268024338
:1011B0002C4B2C331A6006E02A4A2C3212688243E8
:1011C000284B2C331A60704739B1264A30321268E6
:1011D0000243244B30331A6006E0224A3032126850
:1011E0008243204B30331A607047012808D11D49D3
:1011F0003C31096841F008011A4A3C32116007E0AD
:1012000018493C31096821F00801164A3C32116046
:10121000704739B1134A273A12780243114B273BE2
:101220001A7006E00F4A273A127882430D4B273B8B
:101230001A7070470B484030006840F080700949D0
:1012400040310860704701460020064A283A12687B
:101250000A400AB1012000E0002070470149263908
:10126000087070473438024010B50446FE48844286
:1012700008D101210846FFF752FF00210120FFF7A6
:101280004EFF9DE0B4F1804F08D101210846FFF7E1
:1012900035FF00210120FFF731FF91E0F348844240
:1012A00008D101210220FFF729FF00210220FFF7CA
:1012B00025FF85E0EE48844208D101210420FFF794
:1012C0001DFF00210420FFF719FF79E0E94884425F
:1012D00008D101210820FFF711FF00210820FFF7A6
:1012E0000DFF6DE0E448844208D101211020FFF792
:1012F00005FF00211020FFF701FF61E0DF48844275
:1013000008D101212020FFF7F9FE00212020FFF75E
:10131000F5FE55E0DA48844208D101210220FFF7AA
:10132000FEFE00210220FFF7FAFE49E0D548844284
:1013300009D101210804FFF7F2FE00214FF48030AB
:10134000FFF7EDFE3CE0D048844209D1012148047A
:10135000FFF7E5FE00214FF40030FFF7E0FE2FE03D
:10136000CA48844209D101218804FFF7D8FE002130
:101370004FF48020FFF7D3FE22E0C548844208D115
:1013800001214020FFF7BAFE00214020FFF7B6FE02
:1013900016E0C048844208D101218020FFF7AEFE4C
:1013A00000218020FFF7AAFE0AE0BB48844207D153
:1013B00001218015FFF7A2FE0021A015FFF79EFE78
:1013C00010BD00220288A84B98420ED0AC4B984228
:1013D0000BD0B0F1804F08D0A44B984205D0A44B5D
:1013E000984202D0A34B984204D14FF68F731A4013
:1013F0004B881A43A04B984207D0A04B984204D088
:101400004FF6FF431A400B891A4302804B68C362B0
:101410000B880385944B984202D0994B984201D196
:101420008B7A03860123838270474FF0FF3141603E
:101430000021018001814180817270470185828293
:1014400070470A46002101884FF68F7319401143F7
:101450000180704741627047C16270470146486A27
:1014600070470146088D704721B1028842F00202A0
:10147000028004E002884FF6FD731A400280704734
:1014800021B1028842F00402028004E002884FF693
:10149000FB731A400280704721B1028842F080023B
:1014A000028004E002884FF67F731A400280704782
:1014B00002884FF6F7731A40028002880A430280BE
:1014C000704702884FF6FF431A40028002880A43A1
:1014D0000280704721B1028842F00102028004E0DC
:1014E00002884FF6FE731A400280704770B50024E0
:1014F00000220023058C4FF6FE7635400584028CD1
:101500008388048B4FF68F752C40B51E2C400D88B8
:101510002C43751E2A408D892A434D882A43524DFB
:10152000A84202D0564DA84213D14FF6F7752A4073
:10153000CD892A434FF6FB752A408D882A434FF602
:10154000FF652B404FF6FF552B400D8A2B434D8AEC
:101550002B43838004838D684563028470BD70B51E
:10156000002400220023058C4FF6EF7635400584D9
:10157000028C8388048B48F6FF752C404FF6FF459C
:101580002C400D884FF6FF7606EA05252C434FF6D2
:10159000DF752A408D8906EA05152A434D8806EA3B
:1015A00005152A43304DA84202D0354DA8421DD121
:1015B0004FF67F752A40CD894FF6FF7606EA05156E
:1015C0002A434FF6BF752A408D8806EA05152A433F
:1015D0004FF6FF352B404FF2FF752B400D8A06EA80
:1015E00085052B434D8A06EA85052B4383800483BA
:1015F0008D688563028470BD70B5002400220023CD
:10160000058C4FF6FF6635400584028C8388848BF9
:101610004FF68F752C404FF6FC752C400D882C43EF
:101620004FF6FF552A408D894FF6FF7606EA0525CD
:101630002A434D8806EA05252A430B4DA84202D0CD
:101640000F4DA84238D14FF2FF752A40CD894FF691
:10165000FF7606EA05252A434FF6FF352A408D8896
:1016600006EA05252A4319E0000001400004004075
:1016700000080040000C0040001000400014004032
:101680000004014000400140004401400048014086
:1016900000180040001C0040002000404EF6FF757E
:1016A0002B404DF6FF752B400D8A06EA05152B439E
:1016B0004D8A06EA05152B43838084838D68C563B4
:1016C000028470BD70B5002200230024058C4EF604
:1016D000FF7635400584038C8488828B48F6FF753D
:1016E0002A404FF6FF452A400D884FF6FF7606EA5E
:1016F00005252A434DF6FF752B408D8906EA0535F1
:101700002B434D8806EA05352B43FE4DA84202D0F7
:10171000FD4DA84208D14BF6FF752C400D8A4FF6BF
:10172000FF7606EA85152C43848082838D680564E4
:10173000038470BD002101804180818081608181AE
:10174000C18101824182704770B5034600200024A8
:101750001846183001258D40ACB21D8CA5431D8460
:1017600009B108290AD100EB610005684FF68F76B0
:10177000354005600568154305600FE00D1FC5F392
:101780004E052844056848F6FF7635400560056833
:101790004FF6FF7606EA02263543056070BD4163C9
:1017A000704781637047C1637047016470470A46A0
:1017B0000021018B4FF68F7319401143018370474D
:1017C0000A460021018B48F6FF7319404FF6FF735C
:1017D00003EA02231943018370470A460021818BE3
:1017E0004FF68F7319401143818370470A460021D9
:1017F000818B48F6FF7319404FF6FF7303EA02230B
:101800001943818370470A460021018B4FF6F77315
:1018100019401143018370470A460021018B4FF2A2
:10182000FF7319404FF6FF7303EA02231943018344
:1018300070470A460021818B4FF6F7731940114318
:10184000818370470A460021818B4FF2FF73194054
:101850004FF6FF7303EA02231943818370470A4658
:101860000021018B4FF6FB73194011430183704730
:101870000A460021018B4FF6FF3319404FF6FF73E4
:1018800003EA02231943018370470A460021818B32
:101890004FF6FB7319401143818370470A460021BC
:1018A000818B4FF6FF3319404FF6FF7303EA022393
:1018B0001943818370470A460021018B4FF67F73DD
:1018C00019401143018370470A460021018BC1F37F
:1018D0000E014FF6FF7303EA022319430183704799
:1018E0000A460021818B4FF67F7319401143818393
:1018F00070470A460021818BC1F30E014FF6FF733A
:1019000003EA02231943818370470A460021018CB0
:101910004FF6FD7319401143018470470A460021B8
:10192000018C4FF6F77319401143018470470A4642
:101930000021018C4FF6DF7319404FF6FF7303EA65
:1019400002131943018470470A460021018C4FF6A7
:101950007F7319404FF6FF7303EA021319430184A2
:1019600070470A460021018C4FF6FF5319404FF68D
:10197000FF7303EA02231943018470470A460021DA
:10198000018C4FF2FF7319404FF6FF7303EA0223F5
:101990001943018470470A460021018C4DF6FF73FC
:1019A00019404FF6FF7303EA02331943018470476D
:1019B00030B5002301248C40A3B2048C9C430484E2
:1019C000048C02FA01F5ADB22C43048430BD30B56D
:1019D000002304248C40A3B2048C9C430484048C14
:1019E00002FA01F5ADB22C43048430BD828B4FF274
:1019F000FF331A408283828B4FF6FF7303EA012381
:101A00001A4382837047F0B50C4615460021002228
:101A10000026078C4EF6FF7C07EA0C070784818BB3
:101A2000028C4FF6FF7707EA043640F6FF4739404D
:101A30004FF6FF7707EA052739434FF6FF7707EAA6
:101A40000337394345F6FF773A4046F480573A4327
:101A500081830284F0BD828B4FF6F3731A40828338
:101A6000828B0A4382837047F0B50C4615460021ED
:101A700000220026078C4FF6FF6C07EA0C0707844C
:101A8000818B028C4FF6FF7707EA04264FF60C771E
:101A900039404FF6FF7707EA03172F4339434FF2D8
:101AA000FF573A4046F480773A4381830284F0BD81
:101AB000028B4FF2FF331A400283028B4FF6FF7303
:101AC00003EA01231A4302837047F0B50C4615461A
:101AD000002100220026078C4FF6EF7C07EA0C0756
:101AE0000784018B028C4FF6FF7707EA041640F655
:101AF000FF4739404FF6FF7707EA033739434FF680
:101B0000FF7703E0000001400004014007EA0527D9
:101B100039434FF65F773A4046F010073A43018366
:101B20000284F0BD028B4FF6F3731A400283028BDE
:101B30000A4302837047F0B50C4615460021002287
:101B4000068C4FF6FE773E400684018B028C4FF6E2
:101B50000C7631407E1C06EA03162E4331434FF6C5
:101B6000F576324044F00106324301830284F0BD31
:101B700070B505460C46208850B92389A288618833
:101B80002846FFF7D8FFE1882846FFF7CBFF25E07E
:101B9000208804280AD12389A28861882846FFF773
:101BA00094FFE1882846FFF783FF17E02088082884
:101BB0000AD12389A28861882846FFF755FFE1886A
:101BC0002846FFF748FF09E02389A2886188284654
:101BD000FFF719FFE1882846FFF708FF70BD0021D5
:101BE00001804180012181800021C18001817047F5
:101BF0002DE9F04105460C4600260127608808B90A
:101C0000022600E00026A088012801D1022700E07A
:101C100001272088A0B92389A28861882846FFF778
:101C20008AFFE1882846FFF77DFF23893A4631463F
:101C30002846FFF74AFFE1882846FFF739FF13E0FF
:101C40002389A28861882846FFF73FFFE18828465C
:101C5000FFF72EFF23893A4631462846FFF76BFFF0
:101C6000E1882846FFF75EFFBDE8F0810146486B3A
:101C700070470146886B70470146C86B7047014644
:101C8000086C70470A884B881A438B881A43CB88A4
:101C90001A430B891A434B891A438B891A43A0F8BC
:101CA000442070470021018041808180C1800181F2
:101CB00041818181704731B1B0F8442042F4004243
:101CC000A0F8442005E0B0F84420C2F30E02A0F8CA
:101CD0004420704721B1828842F00402828004E0EF
:101CE00082884FF6FB731A408280704721B1828848
:101CF00042F00102828004E082884FF6FE731A40AF
:101D0000828070471AB183890B43838102E0838903
:101D10008B43838170478182704702460020138A7B
:101D20000B400BB1012000E000207047CA43028243
:101D3000704730B50246002000230024158A05EACA
:101D40000103958905EA010413B10CB1012000E0FB
:101D5000002030BDCA430282704741EA0203A0F866
:101D6000483070471AB183890B43838102E083892D
:101D70008B438381704721B1828842F008028280C0
:101D800004E082884FF6F7731A4082807047018919
:101D90004FF6F8721140018170470A46002101890F
:101DA0004FF68F73194011430181704730B50446D7
:101DB0000D4629462046FFF7F0FF208940F0070036
:101DC000208130BD2DE9F04104460D4616461F46E0
:101DD000602D06D13B46012231462046FFF775FEB5
:101DE00005E03B46012231462046FFF7A4FE294686
:101DF0002046FFF7D2FF208940F007002081BDE890
:101E0000F08130B50C4600210189C9B24FF6FF754B
:101E100005EA0325154325432943018130BD2DE9FA
:101E2000F04105460E4617469846002443463A467A
:101E300031462846FFF7E5FF2C894FF6F87004403D
:101E400044F007044FF68F70044044F070042C8176
:101E5000BDE8F081F0B504460D4616461F463B46E8
:101E6000324629462046FFF7CCFF208940F48040C7
:101E70002081F0BD82884FF68F731A40828082885D
:101E80000A438280704702894FF6F8731A40028134
:101E900002890A430281704702894FF67F731A4014
:101EA000028102890A4302817047F0B50C4615464B
:101EB0001E460021002200230189028B038C4FF66D
:101EC000F877394021434FF6FC473A4040F201177A
:101ED0003A434FF6DD773B404FF6FF7707EA0617A8
:101EE0002F433B43018102830384F0BD21B18288EB
:101EF00042F08002828004E082884FF67F731A40AD
:101F000082807047A0F850107047000010B504465A
:101F1000FA48844208D101211020FFF700F900217E
:101F20001020FFF7FCF857E0F548844209D1012161
:101F30004804FFF7E3F800214FF40030FFF7DEF824
:101F40004AE0F048844209D101218804FFF7D6F81D
:101F500000214FF48020FFF7D1F83DE0EA488442A9
:101F600009D10121C804FFF7C9F800214FF400206E
:101F7000FFF7C4F830E0E548844209D101210805A3
:101F8000FFF7BCF800214FF48010FFF7B7F823E00B
:101F9000DF48844208D101212020FFF7C0F800214A
:101FA0002020FFF7BCF817E0DA48844209D101216C
:101FB0008807FFF7A3F800214FF08040FFF79EF855
:101FC0000AE0D548844207D101214005FFF796F881
:101FD00000216005FFF792F810BD2DE9FF47054687
:101FE0000E460024A14600BFA046B08900B100BF44
:101FF0002C8A24F44054F08804432C82AC8941F2AA
:102000000C608443B08831890843718908430443D4
:10201000AC81AC8A24F44074B0890443AC82684635
:10202000FEF7FDFEB548854202D0B948854202D18F
:10203000DDF80C9001E0DDF80890A88900F400407C
:1020400040B109EBC90000EB091031684900B0FB51
:10205000F1F707E009EBC90000EB091031688900CE
:10206000B0FBF1F76420B7FBF0F004012009642114
:1020700001FB1078A88900F4004040B1322000EB49
:10208000C800B0FBF1F000F00700044308E0322084
:1020900000EB08106421B0FBF1F000F00F000443E6
:1020A0002C81BDE8FF874FF416510160002181802B
:1020B000C18001810C21418100218181704710B5CF
:1020C00002460020108A20F470600B884C8823435D
:1020D0008C882343CC8823431843108210BD0021F1
:1020E000018041808180C180704721B1828942F4A2
:1020F0000052828104E082894DF6FF731A4082818A
:102100007047028B02F47F420283028B0A430283F0
:10211000704721B1828942F40042828103E08289C2
:10212000C2F30E028281704721B1828A42F40062BA
:10213000828204E0828A4FF2FF731A4082827047E3
:10214000C1F308028280704701468888C0F3080006
:102150007047028A4FF6F0731A400282028A0A43DD
:102160000282704721B1828942F00202828104E03A
:1021700082894FF6FD731A408281704782894FF23F
:10218000FF731A40828182890A4382817047028AE2
:102190004FF6DF731A400282028A0A4302827047B6
:1021A00021B1028A42F48042028204E0028A4BF6A4
:1021B000FF731A4002827047818941F001018181D9
:1021C000704721B1828A42F00802828204E0828A4A
:1021D0004FF6F7731A4082827047028BD2B20283A5
:1021E000028B42EA01220283704721B1828A42F0C7
:1021F0002002828204E0828A4FF6DF731A408282D4
:10220000704721B1828A42F01002828204E0828A01
:102210004FF6EF731A4082827047828A4FF6FB7343
:102220001A408282828A0A438282704721B1828A5E
:1022300042F00202828204E0828A4FF6FD731A4065
:10224000828270471AB1838A0B43838202E0838AB9
:102250008B4383827047F0B5034600240026002597
:10226000002040F66A17B94200D100BF1846C1F3FA
:10227000421401F01F06012707FA06F5012C01D1CF
:102280000C3004E0022C01D1103000E014301AB1FF
:1022900007682F43076002E00768AF430760F0BD9F
:1022A00002460020B1F5007F00D100BF13880B402B
:1022B0000BB1012000E00020704701F40072B2F57C
:1022C000007F00D100BFCA430280704770B502464C
:1022D000002400230025002040F66A16B14200D1F8
:1022E00000BFC1F3421501F01F03012606FA03F3F4
:1022F000012D13D19689334017E0000000100140F2
:102300000044004000480040004C004000500040A5
:102310000014014000780040007C0040022D02D1F2
:10232000168A334001E0968A33400C12012606FAE1
:1023300004F41688344013B10CB1012000E00020F1
:1023400070BD10B50022002340F66A14A14200D1EE
:1023500000BF0A1201249440A3B2DC43048010BDE4
:1023600010B504466FF00400FEF714F9E11704EB12
:102370005171C1F3C701394A11701046007800EB62
:102380004001C1EBC0104FF6FF7101EAC0003449B3
:10239000088010BD0146314A12784A434FF0E023CD
:1023A0005A6100229A611A46126942F001021A61CA
:1023B00000BF4FF0E022106900F001021AB100F4F2
:1023C0008032002AF5D04FF0E022126922F001029B
:1023D0004FF0E0231A6100229A6170470146204ABB
:1023E00012884A434FF0E0235A6100229A611A464C
:1023F000126942F001021A6100BF4FF0E022106939
:1024000000F001021AB100F48032002AF5D04FF03A
:10241000E022126922F001024FF0E0231A6100224B
:102420009A61704770B504464FF4077094FBF0F062
:10243000C6B24FF4077094FBF0F100FB114085B277
:1024400005E04FF40770FFF7C9FF701EC6B2002EFB
:10245000F7D115B12846FFF7C1FF70BD2400002059
:102460002600002000BF704700BF4C4A128802F0CF
:102470004002002AF9D0C2B2484B9A80704710B58A
:1024800088B0044601210846FEF79AFD012110207C
:10249000FEF7F0FD072209214148FEF77EFB0722E7
:1024A0000A213F48FEF779FB4FF4C06006900220F6
:1024B0008DF81C008DF81D0000208DF81E000120F5
:1024C0008DF81F0006A93648FEF7DCFA02940020BA
:1024D000ADF80C00ADF80E00ADF81000ADF814002A
:1024E0000C20ADF8120002A92C48FFF776FD01215F
:1024F0002A48FFF7FAFD012240F225512748FFF74D
:10250000AAFE25208DF8040003208DF805008DF823
:10251000060001208DF8070001A8FDF7EEFF08B0C6
:1025200010BD10B540F225511C48FFF7CFFE10B387
:102530001A48FFF709FEC4B21A48008800F40040A8
:10254000C8B91848008800F4804060B10A2C03D054
:1025500000201449088020E01248008840F4004020
:102560001049088019E00D2C06D10E48008840F46F
:1025700080400C49088010E00A480088C0F30D0034
:1025800009490C5407480088401C06490880084641
:102590000088C72801DD0020088010BD0010014020
:1025A000000002402C0000208000002010B588B000
:1025B0000446002006900790029003900490059036
:1025C000019001210846FEF7FBFC01214804FEF7BB
:1025D00040FD07220221F948FEF7DFFA0722032116
:1025E000F648FEF7DAFA0C20069002208DF81C005F
:1025F0008DF81D0000208DF81E0001208DF81F00B1
:1026000006A9EE48FEF73EFA02940020ADF80C0051
:10261000ADF80E00ADF81000ADF814000C20ADF8C8
:10262000120002A9E648FFF7D8FC0121E448FFF7B1
:102630005CFD012240F22551E148FFF70CFE262007
:102640008DF8040003208DF805008DF806000120A8
:102650008DF8070001A8FDF750FF08B010BD00B5C8
:1026600091B03C2102A800F036FC01214805FEF79C
:10267000A7FCD448FDF7ACFF00BFD248FEF7D1F865
:102680000028FAD14FF000600290CD48001D039061
:10269000CD48049040200590FF2006900020079030
:1026A0004FF480600890002009900A900B904FF43E
:1026B00000300C9000200D9003200E9000200F9011
:1026C000109002A9BF48FEF725F801228021BC48DE
:1026D000FFF7B8FD0021BB48FEF756F80122102194
:1026E000B848FEF7DEF80020019011208DF80400B4
:1026F00000208DF805008DF8060001208DF80700F8
:1027000001A8FDF7FAFE11B000BD10B50446204641
:10271000FFF74CFFFFF7A3FF10BD10B5044621469D
:10272000A748FFF70DFD00BF4021A548FFF7B8FD02
:102730000128F9D110BD70B505460E46002404E00D
:10274000285DFFF7EAFF601CC4B2B442F8DB70BD3D
:1027500070B504460D46FF2D1EDA2A4621469A48DA
:1027600000F074FB012280219548FFF76BFD0021EA
:102770009448FEF709F800BF9248FEF752F8002887
:10278000FAD129468F48FEF720F88E480C300460B5
:1027900001218C48FDF7F8FF70BD70B5054605B9FD
:1027A00070BD284600F033FB84B2002C03DD2146C7
:1027B0002846FFF7CDFF00BFF2E710B588B004460A
:1027C00000200690079002900390049005900190DD
:1027D00001210220FEF7F4FB01218804FEF739FCF9
:1027E00007220A217948FEF7D8F907220B217748FA
:1027F000FEF7D3F94FF44060069002208DF81C00DC
:102800008DF81D0000208DF81E0001208DF81F009E
:1028100006A96E48FEF736F902940020ADF80C00C8
:10282000ADF80E00ADF81000ADF814000C20ADF8B6
:10283000120002A96648FFF7D0FB01216448FFF7A8
:1028400054FC012240F225516148FFF704FD262087
:102850008DF8040003208DF805008DF80600012096
:102860008DF8070001A8FDF748FE08B010BD00B5BF
:1028700091B03C2102A800F02EFB01214805FEF793
:102880009FFB50484838FDF7A3FE00BF4D48FDF7B9
:10289000C8FF0028FAD14FF0006002904C48001D9C
:1028A00003904C48049040200590FF2006900020A3
:1028B00007904FF480600890002009900A900B90D8
:1028C0004FF400300C9000200D9003200E9000205B
:1028D0000F90109002A93B484838FDF71BFF0122DA
:1028E00080213B48FFF7AEFC002136484838FDF711
:1028F0004BFF0122102133484838FDF7D2FF00205A
:1029000001900E208DF8040000208DF805008DF850
:10291000060001208DF8070001A8FDF7EEFD11B0BB
:1029200000BD10B504462046FFF747FFFFF79FFFA5
:1029300010BD10B5044621462548FFF701FC00BF35
:1029400040212348FFF7ACFC0128F9D110BD70B538
:1029500005460E46002404E0285DFFF7EAFF601CF0
:10296000C4B2B442F8DB70BD70B504460D46FF2D0D
:1029700022DA2A462146174800F068FA012280210F
:102980001348FFF75FFC00210E484838FDF7FCFEB6
:1029900000BF0C484838FDF744FF0028F9D129460C
:1029A00008484838FDF711FF0648A0384466012161
:1029B00004484838FDF7E8FE70BD00000000024002
:1029C00000440040A0600240470200200004024092
:1029D000004800404504002070B5054605B970BDAB
:1029E000284600F014FA84B2002C03DD2146284664
:1029F000FFF7BAFF00BFF2E710B504463749206879
:102A0000884203D16068FFF780FE06E03449206801
:102A1000884202D16068FFF784FF10BD70B504469C
:102A20000D462E492068884203D12846FFF7B5FE9F
:102A300006E02B492068884202D12846FFF7CCFFE8
:102A400070BDAFF24B018160AFF22F01C1607047E2
:102A500010B540F225512148FFF738FC01280CD170
:102A60001E48FFF771FB044621461C48FFF768FB30
:102A700040F225511948FFF764FC10BD10B5194903
:102A80001948FDF7DEFE18B116491748FDF7F5FEA7
:102A900010BD10B540F225511148FFF717FC012871
:102AA0000CD10F48FFF750FB044621460C48FFF7B6
:102AB00047FB40F225510A48FFF743FC10BD10B513
:102AC0004FF0C05108484838FDF7BBFE28B14FF021
:102AD000C05105484838FDF7D0FE10BD0044004005
:102AE0000048004000002020A06002401CB50446C1
:102AF00000200090019042492068884204D10121C1
:102B00000846FEF75DFA34E03E492068884204D169
:102B100001210220FEF754FA2BE03B49206888424D
:102B200004D101210420FEF74BFA22E03749206846
:102B3000884204D101210820FEF742FA19E0344905
:102B40002068884204D101211020FEF739FA10E0F4
:102B500030492068884204D101212020FEF730FA54
:102B600007E02D492068884203D101214020FEF76B
:102B700027FAA088009001208DF8040000208DF82D
:102B8000060003208DF8050001208DF80700694636
:102B90002068FDF777FFA1882068FDF7EFFF01208F
:102BA000A0711CBD10B50446A1882068FDF7E8FFA0
:102BB0000020A07110BD10B50446A1882068FDF763
:102BC000DDFF0120A07110BD10B50446A0790128D9
:102BD00001D0012000E00020A071A279A188206826
:102BE000FDF7D0FF10BDAFF2FB018160AFF24B01EA
:102BF000C160AFF23D010161AFF233014161704745
:102C0000000002400004024000080240000C0240A4
:102C100000100240001402400018024010B50F4896
:102C2000FFF7E1FF0D48816888470D48FFF7DBFF9C
:102C30000B488168884710BD10B500F0AFF810BD93
:102C400010B50848FFF7FDFE06488168884706482A
:102C5000FFF7F7FE04488168884710BD3000002068
:102C60004800002060000020700000207FB505466D
:102C70000C46002001900290039000900121042056
:102C8000FEF7E7F90295ADF804400020ADF8060024
:102C9000ADF80C0001A93D48FEF793FB0122114657
:102CA0003A48FFF72FF801213848FEF713FC1E20A1
:102CB0008DF8000001208DF8010003208DF802003E
:102CC00001208DF803006846FDF717FC7FBD10B5A5
:102CD00001212E48FFF72DF801212C48FFF73AF883
:102CE00010BD30B58BB004460D46002009900A9007
:102CF000069007900890142101A800F0ECF801213B
:102D00000220FEF7B7F901210420FEF759F903224A
:102D100006211F48FDF741FF4020099002208DF851
:102D2000280003208DF8290000208DF82A000120BA
:102D30008DF82B0009A91748FDF7A4FEADF818502F
:102D40000020ADF81A000794ADF8200006A912483B
:102D5000FEF737FB6020ADF804000120ADF8060057
:102D60000220ADF8100001A90B48FEF7BFFB0821B7
:102D70000948FEF748FD01210748FEF78DFB0121B8
:102D80000548FEF7A7FB0BB030BD0000000800406F
:102D90000014024000080240000401401CB500205D
:102DA0000090019001211120FEF70AF910200090F7
:102DB00000208DF8040003208DF8050002208DF816
:102DC000070069460F48FDF75DFE012000900220D4
:102DD0008DF8070069460C48FDF754FE1CBD10B580
:102DE00001210948FDF7B0FE012809D11420FFF7A1
:102DF00019FB01210448FDF7A7FE012800D110BDF1
:102E00000020FCE70010024000000240704710B5AF
:102E1000431C02E010F8011B71B18107FAD14FF099
:102E2000013202C88C1A8C4314EAC211F9D0C01ABC
:102E30000A0603D0C01E10BDC01A10BD0A0401D07E
:102E4000801E10BD0902FCD0401E10BD032A40F2B6
:102E5000308010F0030C00F0158011F8013BBCF13C
:102E6000020F624498BF11F801CB00F8013B38BF54
:102E700011F8013BA2F1040298BF00F801CB38BF62
:102E800000F8013B11F0030300F05080083AC0F055
:102E9000088051F8043B083A51F804CBA0E8081028
:102EA000F5E7121D5CBF51F8043B40F8043BAFF35B
:102EB0000080D20724BF11F8013B11F801CB48BFB5
:102EC00011F8012B24BF00F8013B00F801CB48BFEB
:102ED00000F8012B70474FF0000200B513469446EE
:102EE0009646203922BFA0E80C50A0E80C50B1F162
:102EF0002001BFF4F7AF090728BFA0E80C5048BF76
:102F00000CC05DF804EB890028BF40F8042B08BF13
:102F1000704748BF20F8022B11F0804F18BF00F80F
:102F2000012B7047704770477047704710B5203AC3
:102F3000C0F00B80B1E81850203AA0E81850B1E872
:102F40001850A0E81850BFF4F5AF5FEA027C24BF28
:102F5000B1E81850A0E8185044BF18C918C0BDE81F
:102F600010405FEA827C24BF51F8043B40F8043BE8
:102F700008BF7047D20728BF31F8023B48BF11F89D
:102F8000012B28BF20F8023B48BF00F8012B7047F7
:102F9000754600F02BF8AE4605006946534620F012
:102FA0000700854618B020B5FDF790FABDE820402F
:102FB0004FF000064FF000074FF000084FF0000BF5
:102FC00021F00701AC46ACE8C009ACE8C009ACE8A8
:102FD000C009ACE8C0098D46704710B50446AFF390
:102FE00000802046BDE81040FDF717B90048704743
:102FF000440500204FF04070E1EE100A70470000D9
:10300000203000080000002080000000C4010008FB
:10301000A030000880000020280B0000E00100081C
:10302000007A030A0000000000000000010203040F
:10303000060708090000000001020304010203045E
:103040000607080900000000000000000000000062
:103050000014024000020000000000000000000018
:103060000000000000000000001402400004000006
:103070000000000000000000000000000000000050
:103080000044004000C201000000000000000000F9
:103090000048004000C201000000000000000000E5
:040000050800018965
:00000001FF
